:100E9A000A128A11502F0313831607148714071591
:100EAA008715071608108810081188110812881269
:100EBA00081383120708A00020080139B10031087D
:100ECA000139B10020080239B200B20C32080139E6
:100EDA00B20020080439B300B30CB30C330801394B
:100EEA00B30020080839B400B40CB40CB40C3408AC
:100EFA000139B40020081039B500B50CB50CB50C91
:100F0A00B50C35080139B50020080139B600B60913
:100F1A0036080139B60020080239B700B70CB709FC
:100F2A0037080139B70020080439B800B80CB80CE2
:100F3A00B80938080139B80020080839B900B90CCD
:100F4A00B90CB90CB90939080139B90020081039A6
:100F5A00C000C00CC00CC00CC00CC009400801394C
:100F6A00C00038083505C10033083905C200310808
:100F7A003705C30041084204C40043084404C500BD
:100F8A0034084005C60032083805C7004608470439
:100F9A00C80031083805C90048084904D000360895
:100FAA00370538054005D1003608370538053905B3
:100FBA00D40047084604D50041084204D600340844
:100FCA003505D70036083705380539054005D800F4
:100FDA0057085804D900880145180814511888146C
:100FEA0050180815541888155518081656188816D2
:060FFA00591808175F2FD3
:02400E00B13FC0
:00000001FF
